:040000000BEF00F012
:100008005482FACF1CF0FBCF1DF0B5ED08F063EF7A
:020018000AF0EC
:101000000001000A006400E803102752656164656E
:10101000640D0A0073746172740D0A0025640D0A70
:101020000000110E146E000E156E8CD0250E1A18CD
:10103000D8B409D00DC0D9FF0EC0DAFF1AC0DFFF47
:101040000D4A0E2A7FD0000E166E0FC0F6FF10C09C
:10105000F7FF0F4A102A0800F5CF1AF01A50000ABD
:10106000D8B47CD0640AD8B403D00D0AD8A46AD00E
:1010700014C0D9FF15C0DAFFDECF18F0DDCF19F0AC
:10108000020E1426000E152219AE06D0030E1612FB
:10109000186C191ED8B0192A010E1A6E050E1A18EE
:1010A000D8B412D01A50020D010EF324F66E100EB1
:1010B000F420F76E0900F550185C0900F550195836
:1010C000D8A002D01A2AEAD716C013F0030E1316BE
:1010D000D8B408D00DC0D9FF0EC0DAFF2D0EDF6ED8
:1010E0000D4A0E2A1AC017F029D01750020D010E12
:1010F000F324F66E100EF420F76E0900F5CF03F01E
:101100000A00F5CF04F018C001F019C002F0DDECC0
:1011100009F001C008F002C009F0000E0B6E0A0EC3
:101120000A6E06EC0AF00850300F1A6E0DC0D9FF97
:101130000EC0DAFF1AC0DFFF0D4A0E2A1706172865
:10114000D8A4D3D70FC0F6FF10C0F7FF0F4A102A5C
:101150000800F5CF1AF01A50D8A468D70DC0D9FFEF
:101160000EC0DAFF000EDF6E12000600E9CF1EF09F
:10117000EACF1FF0E1CF20F0E2CF21F0D9CF22F06B
:10118000DACF23F0F3CF24F0F4CF25F0F6CF26F01A
:10119000F7CF27F0F8CF28F0F5CF29F0A1B2F2A4CD
:1011A00005D0B3EC09F02EEC09F008D0A1A203D0D1
:1011B000B3EC09F003D0F2B42EEC09F029C0F5FF2E
:1011C00028C0F8FF27C0F7FF26C0F6FF25C0F4FFB0
:1011D00024C0F3FF23C0DAFF22C0D9FF21C0E2FF01
:1011E00020C0E1FF1FC0EAFF1EC0E9FF1DC0FBFFDA
:1011F0001CC0FAFF54921100000E2E6E000E2D6ED0
:10120000000E306E000E2F6E54EC0AF080EC0AF0E7
:10121000000EF26E000E836E030ED56E300EB16EB0
:101220008BEC0AF086EC0AF0D09E000E9D6E000E4C
:10123000A06EF28AA0829D8A000E9E6E000EF06E55
:10124000000EF16EF28EF28CD58EB180140E2B6EE4
:10125000100E2C6E5DEC09F00400FED7F29483B002
:1012600003D01B6A1B2A01D01B6A83501B18FE0B7C
:101270001B18836E2D4A2E2A2E5004E1070E2D5C7A
:10128000D8A018D0340E0D6E000E0E6E1C0E0F6E10
:10129000100E106E31C011F032C012F011EC08F0D7
:1012A000340E026E000E036E88EC09F0000E2E6EF6
:1012B000000E2D6E95EC0AF0120015D02BC0F6FF33
:1012C0002CC0F7FF000EF86E0F0EF76403D0080075
:1012D000F55005D0F6CFE9FFF7CFEAFFEF5070ECFD
:1012E0000AF02B4A2C2A2BC0F6FF2CC0F7FF000E69
:1012F000F86E0F0EF76403D00800F55005D0F6CF56
:10130000E9FFF7CFEAFFEF500009D8B41200D6D7B3
:1013100015D002C0F6FF03C0F7FF000EF86E0F0EE7
:10132000F76403D00800F55005D0F6CFE9FFF7CFFA
:10133000EAFFEF5078EC0AF0024A032A02C0F6FFF7
:1013400003C0F7FF000EF86E0F0EF76403D008001D
:10135000F55005D0F6CFE9FFF7CFEAFFEF500009CF
:10136000D8B41200D6D7A19283B403D0086A082A51
:1013700001D0086A0846084683500818FB0B081875
:10138000836E2F4A302A305004E10A0E2F5CD8A019
:1013900011D0000E27EC0AF001C031F002C032F08B
:1013A0000B0E026E100E036E88EC09F0000E306E0C
:1013B000000E2F6E90EC0AF01200000E066E000E6A
:1013C000056E03500410D8B41CD0010E076E04D073
:1013D000D89003360436072A04AEFAD7D8900536DB
:1013E00006360350015C04500258D8A005D00350C3
:1013F000015E0450025A0580D89004320332072E51
:10140000EDD705C001F006C002F012000A500B1023
:10141000D8B418D0010E0C6E04D0D8900A360B3612
:101420000C2A0BAEFAD70A50085C0B500958D8A00A
:1014300004D00A50085E0B50095AD8900B320A3279
:101440000C2EF1D708C008F009C009F01200076E91
:1014500007C003F003460346C2500318C30B03182A
:10146000C26EC282C2B2FED7C350C4CF03F0046AB8
:1014700003C004F0036A0310056E0450066E05C035
:1014800001F006C002F01200B896000EAC6E190E04
:10149000AF6EAC84AC8A000EAB6EAB88AB8EAECFB9
:1014A0002AF0AECF2AF01200000EC26E0E0EC16EF0
:1014B0009368800E946E9268000E956E000E966E84
:1014C00044EC0AF0120000EE2DF0270EEE6AE8065A
:1014D000FDE154905492000EF86E0001FCEF08F00C
:1014E0002A6E01D00400ACA2FDD72AC0ADFF1200C5
:1014F000016E01D00400ACA2FDD701C0ADFF120007
:10150000000EC26EC280890EC06E12000B0EB36E4A
:10151000DC0EB26E12000B0ED76EDC0ED66E120011
:101520000B0EB36EDC0EB26E12000B0ED76EDC0E1D
:04153000D66E120061
:020000040020DA
:08000000FFFFFFFFFFFFFFFF00
:020000040030CA
:0E000000FF011F1FFF8385FF0FC00FE00F40A1
:00000001FF
